:100000000C942A000C943C000C943C000C943C0092
:100010000C943C000C943C000C943C000C943C0070
:100020000C943C000C943C000C943C000C943C0060
:100030000C943C000C943C000C943C000C943C0050
:100040000C943C000C943C000C943C000C943C0040
:100050000C943C0011241FBECFE5D8E0DEBFCDBF1D
:1000600020E0A0E6B0E001C01D92A336B207E1F7A0
:100070000E94FC000C9456020C94000060E084E4A2
:100080000E94E70061E084E40E94E70062E084E40B
:100090000E94E70060E081E40E94D100089542E6FA
:1000A00050E060E081E40E94D800809162008130DD
:1000B00089F48091600090916100019690936100B5
:1000C0008093600010926200069721F41092610004
:1000D000109260008091600090916100892B61F422
:1000E00060E084E40E94F50061E084E40E94F50091
:1000F00062E084E40E94F5008091600090916100CC
:100100008330910539F134F48130910549F002973B
:10011000A1F008958430910551F10597A9F1089552
:1001200060E084E40E94EE0062E084E40E94F50056
:1001300061E084E40E94F500089560E084E40E9498
:10014000EE0061E084E40E94EE0062E084E40E943C
:10015000F500089560E084E40E94EE0061E084E42C
:100160000E94EE0062E084E40E94EE00089560E0E8
:1001700084E40E94EE0061E084E40E94EE0062E00C
:1001800084E40E94F500089560E084E40E94EE009B
:1001900061E084E40E94F50062E084E40E94F500DE
:1001A0000895982F862F40E0692F0E94010108953D
:1001B000982F862F20E030E002C02F5F3F4F203382
:1001C00065E73607D4F3692F0E9417020895982F28
:1001D000862F41E0692F0E9401010895982F862FF4
:1001E00041E0692F0E948C010895982F862F40E0EE
:1001F000692F0E948C0108950E943E000E944F00CA
:10020000FDCF623459F118F4613441F0089563343C
:1002100009F444C0643409F460C0089541110EC06B
:100220004AB321E030E0B90102C0660F771F8A951A
:10023000E2F7CB01809584238ABB0895413009F011
:100240006AC04AB321E030E0B90102C0660F771FEF
:100250008A95E2F7CB01842B8ABB089541110EC029
:1002600047B321E030E0B90102C0660F771F8A95DD
:10027000E2F7CB018095842387BB0895413009F0D4
:100280004AC047B321E030E0B90102C0660F771FD2
:100290008A95E2F7CB01842B87BB089541110EC0EC
:1002A00044B321E030E0B90102C0660F771F8A95A0
:1002B000E2F7CB018095842384BB0895413059F542
:1002C00044B321E030E0B90102C0660F771F8A9580
:1002D000E2F7CB01842B84BB089541110EC041B3DA
:1002E00021E030E0B90102C0660F771F8A95E2F77E
:1002F000CB018095842381BB0895413061F441B3E3
:1003000021E030E0B90102C0660F771F8A95E2F75D
:10031000CB01842B81BB0895623459F118F4613408
:1003200041F00895633409F444C0643409F460C0B2
:10033000089541110EC04BB321E030E0B90102C075
:10034000660F771F8A95E2F7CB01809584238BBBDC
:100350000895413009F06AC04BB321E030E0B901A3
:1003600002C0660F771F8A95E2F7CB01842B8BBB07
:10037000089541110EC048B321E030E0B90102C038
:10038000660F771F8A95E2F7CB018095842388BB9F
:100390000895413009F04AC048B321E030E0B90186
:1003A00002C0660F771F8A95E2F7CB01842B88BBCA
:1003B000089541110EC045B321E030E0B90102C0FB
:1003C000660F771F8A95E2F7CB018095842385BB62
:1003D0000895413059F545B321E030E0B90102C03C
:1003E000660F771F8A95E2F7CB01842B85BB0895B2
:1003F00041110EC042B321E030E0B90102C0660FE6
:10040000771F8A95E2F7CB018095842382BB0895FC
:10041000413061F442B321E030E0B90102C0660F1F
:10042000771F8A95E2F7CB01842B82BB0895623453
:10043000B1F018F4613431F008956334E9F06434B4
:1004400041F1089529B330E0B90102C0759567956F
:100450008A95E2F7CB018170FA018083089526B373
:1004600030E0B90102C0759567958A95E2F7CB0136
:100470008170FA018083089523B330E0B90102C08E
:10048000759567958A95E2F7CB018170FA018083B3
:10049000089520B330E0B90102C0759567958A953B
:1004A000E2F7CB018170FA0180830895F894FFCFC1
:00000001FF
